:100000000C9472000C9493000C9493000C94930045
:100010000C9493000C94BC010C9491010C949300EB
:100020000C9493000C9493000C9493000C94930004
:100030000C9493000C9493000C9493000C949300F4
:100040000C9493000C9493000C9493000C949300E4
:100050000C9493000C9493000C9493000C949300D4
:100060000C9493000C94F9030C9493000C9493005B
:100070000C9493000C9493000C9493000C949300B4
:100080000C9493000C9493000C9493000C949300A4
:100090000C9493000C9493000C9493000C94930094
:1000A0000C9493000C9493000C9493000C94930084
:1000B0000C9493000C9493000C9493000C94930074
:1000C0000C9493000C9493000C9493000C94930064
:1000D0000C9493000C9493000C9493000C94930054
:1000E0000C94930011241FBECFEFD1E2DEBFCDBF31
:1000F00000E00CBF13E0A0E0B2E0E0E0F2E200E0DC
:100100000BBF02C007900D92A830B107D9F713E0DA
:10011000A8E0B3E001C01D92A331B107E1F70E944E
:10012000EB090C94FE100C940000DF93CF93CDB735
:10013000DEB7A7E2B0E0E7E2F0E0808188608C9370
:10014000A8E2B0E0E8E2F0E08081877F8C93CF9175
:10015000DF910895DF93CF930F92CDB7DEB7198269
:10016000E6E2F0E080818983898188608983E8E222
:10017000F0E0898180830F90CF91DF910895DF9324
:10018000CF930F92CDB7DEB71982E6E2F0E080811F
:1001900089838981877F8983E8E2F0E08981808390
:1001A0000F90CF91DF910895DF93CF93CDB7DEB756
:1001B000ADE2B0E0EDE2F0E080818F778C93AEE2CB
:1001C000B0E0EEE2F0E0808180688C93CF91DF9127
:1001D0000895DF93CF93CDB7DEB7E1ECF0E0108266
:1001E000E0ECF0E01082E2ECF0E086E08083E4EC0A
:1001F000F0E087E48083E5ECF0E01082E1ECF0E0F1
:1002000088E98083CF91DF910895DF93CF93CDB7B5
:10021000DEB7A1E2B0E0E1E2F0E080818F608C9394
:10022000A2E2B0E0E2E2F0E08081807F8C93AAE07D
:10023000B1E0EAE0F1E0808188618C93ABE0B1E06D
:10024000EBE0F1E0808188618C93CF91DF9108959C
:10025000DF93CF93CDB7DEB7ADE2B0E0EDE2F0E0F3
:1002600080818F7E8C93AEE2B0E0EEE2F0E08081A0
:1002700080618C93CF91DF910895DF93CF93CDB7B9
:10028000DEB7ADE2B0E0EDE2F0E080818F7D8C93EF
:10029000AEE2B0E0EEE2F0E0808180628C93CF913C
:1002A000DF910895DF93CF93CDB7DEB70E940501AC
:1002B0000E9495000E94D4000E9428010E943D01E6
:1002C000CF91DF910895DF93CF93CDB7DEB7F89448
:1002D000AAE6B0E0EAE6F0E0808182608C93ADE3CC
:1002E000B0E0EDE3F0E0808180618C937894CF9171
:1002F000DF910895DF93CF93CDB7DEB7F894AAE6E8
:10030000B0E0EAE6F0E0808188608C93ADE3B0E095
:10031000EDE3F0E0808180628C937894CF91DF915F
:1003200008951F920F920FB60F9211248F939F93EF
:10033000AF93BF93DF93CF93CDB7DEB780910C031C
:1003400090910D03A0910E03B0910F030196A11D92
:10035000B11D80930C0390930D03A0930E03B093F3
:100360000F03CF91DF91BF91AF919F918F910F902C
:100370000FBE0F901F9018951F920F920FB60F92FD
:1003800011248F939F93AF93BF93DF93CF93CDB7F8
:10039000DEB78091080390910903A0910A03B09100
:1003A0000B030196A11DB11D8093080390930903CF
:1003B000A0930A03B0930B03CF91DF91BF91AF914C
:1003C0009F918F910F900FBE0F901F901895DF9304
:1003D000CF930F920F92CDB7DEB78A8319828A81AD
:1003E0008F708A83E2E2F0E0808189838981807F57
:1003F000898399818A81892B8983E2E2F0E089816E
:1004000080830F900F90CF91DF910895DF93CF936A
:10041000CDB7DEB786E00E94E701CF91DF91089566
:10042000DF93CF93CDB7DEB789E00E94E701CF918C
:10043000DF910895DF93CF93CDB7DEB785E00E94BB
:10044000E701CF91DF910895DF93CF93CDB7DEB76A
:100450008AE00E94E701CF91DF910895DF93CF9367
:10046000CDB7DEB784E00E94E701CF91DF91089518
:10047000DF93CF93CDB7DEB782E00E94E701CF9143
:10048000DF910895DF93CF93CDB7DEB781E00E946F
:10049000E701CF91DF910895DF93CF93CDB7DEB71A
:1004A00088E00E94E701CF91DF910895DF93CF9319
:1004B000CDB7DEB780E00E94E701CF91DF910895CC
:1004C000DF93CF93CDB7DEB72C970FB6F894DEBF8E
:1004D0000FBECDBF9A87898780E090E0A0E0B0E0B2
:1004E0008D839E83AF83B88719821A821B821C82F8
:1004F00089859A85CC01A0E0B0E0BC01CD010E94C5
:10050000590EDC01CB01BC01CD0128E431EE42E8FB
:1005100050E40E94C90CDC01CB018D839E83AF8324
:10052000B8876D817E818F8198850E94F909DC01F1
:10053000CB01CC01A0E0B0E089839A83AB83BC837C
:1005400010920C0310920D0310920E0310920F03E1
:10055000109208031092090310920A0310920B03E1
:1005600020910C0330910D0340910E0350910F0325
:100570001C8689819A81AB81BC81281739074A077B
:100580005B0710F081E08C8720910803309109030C
:1005900040910A0350910B031B8689819A81AB819C
:1005A000BC81281739074A075B0710F091E09B8749
:1005B0008C859B85892B882399F20E9456022C9664
:1005C0000FB6F894DEBF0FBECDBFCF91DF91089577
:1005D000DF93CF93CDB7DEB72A970FB6F894DEBF7F
:1005E0000FBECDBF9A87898780E090E0A0E0B0E0A1
:1005F0008D839E83AF83B88719821A821B821C82E7
:1006000089859A85CC01A0E0B0E0BC01CD010E94B3
:10061000590EDC01CB01BC01CD0125EE30ED4AEADB
:1006200050E40E94C90CDC01CB018D839E83AF8313
:10063000B8876D817E818F8198850E94F909DC01E0
:10064000CB0189839A83AB83BC8310920C031092F5
:100650000D0310920E0310920F0320910C033091A2
:100660000D0340910E0350910F0389819A81AB8154
:10067000BC8182179307A407B50778F70E9456023A
:100680002A960FB6F894DEBF0FBECDBFCF91DF9193
:100690000895DF93CF930F920F92CDB7DEB79A8371
:1006A00089830E94060289819A810E94E8020F9044
:1006B0000F90CF91DF910895DF93CF930F920F9218
:1006C000CDB7DEB79A8389830E94100289819A810F
:1006D0000E94E8020F900F90CF91DF910895DF9371
:1006E000CF930F920F92CDB7DEB79A8389830E9482
:1006F0001A0289819A810E9460020F900F90CF9117
:10070000DF910895DF93CF930F920F92CDB7DEB7AD
:100710009A8389830E94240289819A810E946002BF
:100720000F900F90CF91DF910895DF93CF930F92A9
:100730000F92CDB7DEB79A8389830E942E028981FA
:100740009A81880F991F9A83898389819A810E944F
:1007500060020F900F90CF91DF910895DF93CF93B8
:100760000F920F92CDB7DEB79A8389830E94380229
:1007700089819A81880F991F9A83898389819A81B7
:100780000E9460020F900F90CF91DF910895DF9348
:10079000CF930F920F92CDB7DEB79A8389830E94D1
:1007A000420289819A81880F991F9A83898389815E
:1007B0009A810E9460020F900F90CF91DF9108956F
:1007C000DF93CF930F920F92CDB7DEB79A838983D1
:1007D0000E944C0289819A81880F991F9A8389838C
:1007E00089819A810E9460020F900F90CF91DF91D2
:1007F00008951F920F920FB60F9200905B000F9218
:1008000011240F931F932F933F934F935F936F93F5
:100810007F938F939F93AF93BF93EF93FF93DF9358
:10082000CF93CDB7DEB7CE57D040DEBFCDBFE6EC1D
:10083000F0E08081809312037894809112038737CF
:1008400009F0BFC082E390E00E9449030E94560273
:10085000FE01E558FF4F80E090E0A8ECB2E4808311
:100860009183A283B3838E0109581F4FFE01E5587F
:10087000FF4F60817181828193812DEC3CEC4CE2D1
:1008800055E40E94CF0BDC01CB01F80180839183FA
:10089000A283B383FE01E958FF4F60817181828199
:1008A000938120E030E040E85FE30E94D50D88238B
:1008B00044F4FE01EB58FF4F81E090E09183808388
:1008C00064C0FE01E958FF4F60817181828193818C
:1008D00020E03FEF4FE757E40E94750D18160CF02B
:1008E00043C0FE01E558FF4F608171818281938191
:1008F00020E030E040E251E40E94CF0BDC01CB016C
:100900008E010B581F4FBC01CD010E94F909DC017B
:10091000CB01F801918380831FC0FE01ED58FF4F8A
:1009200084E191E091838083FE01ED58FF4F808147
:1009300091810197F1F7FE01ED58FF4F918380837C
:10094000DE01AB58BF4FFE01EB58FF4F8081918114
:10095000019711969C938E93FE01EB58FF4F808177
:1009600091810097D1F628C08E010B581F4FFE01D0
:10097000E958FF4F60817181828193810E94F9095A
:10098000DC01CB01F80191838083DE01AF58BF4FBA
:10099000FE01EB58FF4F8081918111969C938E93BD
:1009A000FE01EF58FF4F808191810197F1F7FE0121
:1009B000EF58FF4F91838083E6ECF0E080911203C3
:1009C000808380911203883709F0BFC082E390E0F2
:1009D0000E945C030E945602FE01E359FF4F80E033
:1009E00090E0A8ECB2E480839183A283B3838E016C
:1009F00007591F4FFE01E359FF4F608171818281CA
:100A000093812DEC3CEC4CE255E40E94CF0BDC01D1
:100A1000CB01F80180839183A283B383FE01E75960
:100A2000FF4F608171818281938120E030E040E856
:100A30005FE30E94D50D882344F4FE01E959FF4F7E
:100A400081E090E09183808364C0FE01E759FF4F0D
:100A5000608171818281938120E03FEF4FE757E40D
:100A60000E94750D18160CF043C0FE01E359FF4FAC
:100A7000608171818281938120E030E040E251E425
:100A80000E94CF0BDC01CB018E0109591F4FBC0125
:100A9000CD010E94F909DC01CB01F801918380832B
:100AA0001FC0FE01EB59FF4F84E191E091838083E9
:100AB000FE01EB59FF4F808191810197F1F7FE0113
:100AC000EB59FF4F91838083DE01A959BF4FFE018F
:100AD000E959FF4F80819181019711969C938E93E4
:100AE000FE01E959FF4F808191810097D1F628C01E
:100AF0008E0109591F4FFE01E759FF4F6081718137
:100B0000828193810E94F909DC01CB01F801918374
:100B10008083DE01AD59BF4FFE01E959FF4F80814F
:100B2000918111969C938E93FE01ED59FF4F808128
:100B300091810197F1F7FE01ED59FF4F9183808379
:100B4000E6ECF0E0809112038083809112038136FD
:100B500009F0BFC08EE590E00E946F030E9456022C
:100B6000FE01E15AFF4F80E090E0A8ECB2E4808300
:100B70009183A283B3838E01055A1F4FFE01E15A70
:100B8000FF4F60817181828193812DEC3CEC4CE2BE
:100B900055E40E94CF0BDC01CB01F80180839183E7
:100BA000A283B383FE01E55AFF4F60817181828188
:100BB000938120E030E040E85FE30E94D50D882378
:100BC00044F4FE01E75AFF4F81E090E09183808377
:100BD00064C0FE01E55AFF4F60817181828193817B
:100BE00020E03FEF4FE757E40E94750D18160CF018
:100BF00043C0FE01E15AFF4F608171818281938180
:100C000020E030E040E251E40E94CF0BDC01CB0158
:100C10008E01075A1F4FBC01CD010E94F909DC016A
:100C2000CB01F801918380831FC0FE01E95AFF4F79
:100C300084E191E091838083FE01E95AFF4F808136
:100C400091810197F1F7FE01E95AFF4F918380836B
:100C5000DE01A75ABF4FFE01E75AFF4F8081918105
:100C6000019711969C938E93FE01E75AFF4F808166
:100C700091810097D1F628C08E01075A1F4FFE01BF
:100C8000E55AFF4F60817181828193810E94F90949
:100C9000DC01CB01F80191838083DE01AB5ABF4FA9
:100CA000FE01E75AFF4F8081918111969C938E93AC
:100CB000FE01EB5AFF4F808191810197F1F7FE0110
:100CC000EB5AFF4F91838083E6ECF0E080911203B2
:100CD000808380911203843609F0BFC082E690E0E1
:100CE0000E9482030E945602FE01EF5AFF4F80E0ED
:100CF00090E0A8ECB2E480839183A283B3838E0159
:100D0000035B1F4FFE01EF5AFF4F608171818281AB
:100D100093812DEC3CEC4CE255E40E94CF0BDC01BE
:100D2000CB01F80180839183A283B383FE01E35B4F
:100D3000FF4F608171818281938120E030E040E843
:100D40005FE30E94D50D882344F4FE01E55BFF4F6D
:100D500081E090E09183808364C0FE01E35BFF4FFC
:100D6000608171818281938120E03FEF4FE757E4FA
:100D70000E94750D18160CF043C0FE01EF5AFF4F8C
:100D8000608171818281938120E030E040E251E412
:100D90000E94CF0BDC01CB018E01055B1F4FBC0114
:100DA000CD010E94F909DC01CB01F8019183808318
:100DB0001FC0FE01E75BFF4F84E191E091838083D8
:100DC000FE01E75BFF4F808191810197F1F7FE0102
:100DD000E75BFF4F91838083DE01A55BBF4FFE0180
:100DE000E55BFF4F80819181019711969C938E93D3
:100DF000FE01E55BFF4F808191810097D1F628C00D
:100E00008E01055B1F4FFE01E35BFF4F6081718127
:100E1000828193810E94F909DC01CB01F801918361
:100E20008083DE01A95BBF4FFE01E55BFF4F808140
:100E3000918111969C938E93FE01E95BFF4F808117
:100E400091810197F1F7FE01E95BFF4F9183808368
:100E5000E6ECF0E0809112038083809112038137E9
:100E600009F090C08AE590E00E9495030E94560226
:100E7000FE01ED5BFF4F80E090E0A8ECB2E48083E0
:100E80009183A283B3838E01015C1F4FFE01ED5B52
:100E9000FF4F60817181828193812DEC3CEC4CE2AB
:100EA00055E40E94CF0BDC01CB01F80180839183D4
:100EB000A283B383FE01FF96608171818281938159
:100EC00020E030E040E85FE30E94D50D88232CF459
:100ED00081E090E09EAF8DAF46C0FE01FF9660813D
:100EE00071818281938120E03FEF4FE757E40E94B8
:100EF000750D181664F5FE01ED5BFF4F6081718181
:100F00008281938120E030E040E251E40E94CF0BE7
:100F1000DC01CB01BC01CD010E94F909DC01CB0150
:100F20009EAF8DAF0FC084E191E09CAF8BAF8BADD6
:100F30009CAD0197F1F79CAF8BAF8DAD9EAD019746
:100F40009EAF8DAF8DAD9EAD009769F716C0FE01C7
:100F5000FF9660817181828193810E94F909DC0191
:100F6000CB019EAF8DAF8DAD9EAD9AAF89AF89ADF0
:100F70009AAD0197F1F79AAF89AFE6ECF0E0809176
:100F80001203808380911203853609F07DC08AE5C3
:100F900090E00E94AE030E94560280E090E0A8EC30
:100FA000B2E48DAB9EABAFABB8AF6DA97EA98FA9F4
:100FB00098AD2DEC3CEC4CE255E40E94CF0BDC01EB
:100FC000CB0189AB9AABABABBCAB69A97AA98BA9B6
:100FD0009CA920E030E040E85FE30E94D50D882323
:100FE0002CF481E090E098AB8FA73FC069A97AA963
:100FF0008BA99CA920E03FEF4FE757E40E94750DB5
:1010000018164CF56DA97EA98FA998AD20E030E0A7
:1010100040E251E40E94CF0BDC01CB01BC01CD01C9
:101020000E94F909DC01CB0198AB8FA70FC084E1C6
:1010300091E09EA78DA78DA59EA50197F1F79EA78C
:101040008DA78FA598A9019798AB8FA78FA598A971
:10105000009769F714C069A97AA98BA99CA90E9475
:10106000F909DC01CB0198AB8FA78FA598A99CA7A4
:101070008BA78BA59CA50197F1F79CA78BA7E6EC06
:10108000F0E080911203808380911203833709F08E
:1010900079C00E94560280E090E0A8ECB2E48FA3F1
:1010A00098A7A9A7BAA76FA178A589A59AA52DEC9D
:1010B0003CEC4CE255E40E94CF0BDC01CB018BA34E
:1010C0009CA3ADA3BEA36BA17CA18DA19EA120E09A
:1010D00030E040E85FE30E94D50D88232CF481E0E6
:1010E00090E09AA389A33FC06BA17CA18DA19EA192
:1010F00020E03FEF4FE757E40E94750D18164CF5BE
:101100006FA178A589A59AA520E030E040E251E4DE
:101110000E94CF0BDC01CB01BC01CD010E94F9097B
:10112000DC01CB019AA389A30FC084E191E098A3CD
:101130008F8F8F8D98A10197F1F798A38F8F89A139
:101140009AA101979AA389A389A19AA1009769F707
:1011500014C06BA17CA18DA19EA10E94F909DC01A4
:10116000CB019AA389A389A19AA19E8F8D8F8D8D82
:101170009E8D0197F1F79E8F8D8FE6ECF0E08091C8
:1011800012038083809112038A3709F079C00E948C
:10119000AA0080E090E0A8ECB2E4898F9A8FAB8F30
:1011A000BC8F698D7A8D8B8D9C8D2DEC3CEC4CE247
:1011B00055E40E94CF0BDC01CB018D8B9E8BAF8B56
:1011C000B88F6D897E898F89988D20E030E040E866
:1011D0005FE30E94D50D88232CF481E090E09C8B86
:1011E0008B8B3FC06D897E898F89988D20E03FEF82
:1011F0004FE757E40E94750D18164CF5698D7A8DEE
:101200008B8D9C8D20E030E040E251E40E94CF0BBA
:10121000DC01CB01BC01CD010E94F909DC01CB014D
:101220009C8B8B8B0FC084E191E09A8B898B898991
:101230009A890197F1F79A8B898B8B899C89019701
:101240009C8B8B8B8B899C89009769F714C06D8967
:101250007E898F89988D0E94F909DC01CB019C8BD6
:101260008B8B8B899C89988B8F878F859889019729
:10127000F1F7988B8F87E6ECF0E080911203808382
:1012800080911203833609F079C00E94BF0080E08C
:1012900090E0A8ECB2E48B879C87AD87BE876B8516
:1012A0007C858D859E852DEC3CEC4CE255E40E94BE
:1012B000CF0BDC01CB018F839887A987BA876F8119
:1012C000788589859A8520E030E040E85FE30E94D8
:1012D000D50D88232CF481E090E09E838D833FC060
:1012E0006F81788589859A8520E03FEF4FE757E445
:1012F0000E94750D18164CF56B857C858D859E8535
:1013000020E030E040E251E40E94CF0BDC01CB0151
:10131000BC01CD010E94F909DC01CB019E838D83C4
:101320000FC084E191E09C838B838B819C8101972A
:10133000F1F79C838B838D819E8101979E838D83A2
:101340008D819E81009769F714C06F8178858985AA
:101350009A850E94F909DC01CB019E838D838D81E2
:101360009E819A83898389819A810197F1F79A8373
:101370008983E6ECF0E0809112038083C258DF4F4E
:10138000DEBFCDBFCF91DF91FF91EF91BF91AF91C4
:101390009F918F917F916F915F914F913F912F918D
:1013A0001F910F910F9000925B000F900FBE0F9056
:1013B0001F901895DF93CF93CDB7DEB7F8940E94B6
:1013C00052010E94E9000E9463010E947A01789410
:1013D000CF91DF910895DF93CF93CDB7DEB70E9411
:1013E000D400ECE2F0E080818823DCF30E94DA098B
:1013F000FFCFEF92FF920F931F937B018C0120E0B0
:1014000030E040E05FE40E94A50D88238CF0C80125
:10141000B70120E030E040E05FE40E94710B0E94E1
:10142000050E9B01AC01205030404040504806C0A2
:10143000C801B7010E94050E9B01AC01B901CA01A8
:101440001F910F91FF90EF900895A0E0B0E0EBE2C4
:10145000FAE00C94C710DC012B01FA019C91923048
:1014600008F439C1EB018881823008F433C194302B
:1014700069F4843009F02FC111969C9111978981EC
:10148000981709F428C1A0E0B2E025C1843009F41E
:1014900021C18230A9F4923009F01DC19A01AD0139
:1014A00088E0EA010990AE01E90109929E018150AC
:1014B000C1F7E201898111969C918923818308C13A
:1014C000923009F407C112962D903C901397EB01CE
:1014D0008A819B811496AD90BD90CD90DC9017973A
:1014E000EC80FD800E811F819101281B390BB90111
:1014F00037FF04C066277727621B730B60327105C4
:101500000CF061C0121613066CF537014801062E67
:1015100004C096948794779467940A94D2F721E054
:1015200030E040E050E004C0220F331F441F551F3D
:101530006A95D2F721503040404050402E213F2143
:1015400040235123211531054105510521F021E0AA
:1015500030E040E050E079018A01E628F7280829C8
:1015600019293CC0232BD1F1260E371E3501460127
:10157000062E04C096948794779467940A94D2F7C1
:1015800021E030E040E050E004C0220F331F441F50
:10159000551F6A95D2F721503040404050402A21D3
:1015A0003B214C215D21211531054105510521F0DB
:1015B00021E030E040E050E059016A01A628B72858
:1015C000C828D9280BC0821593052CF01C01AA2429
:1015D000BB24650103C0EE24FF24870111969C9172
:1015E000D20111968C91981709F445C0992339F0CE
:1015F000A80197012A193B094C095D0906C0A601FB
:1016000095012E193F09400B510B57FD08C011825F
:101610003382228224833583468357831DC081E031
:1016200081833382228288279927DC01821B930BD6
:10163000A40BB50B84839583A683B7830DC0220FBB
:10164000331F441F551F248335834683578382816C
:1016500093810197938382832481358146815781C9
:10166000DA01C9010197A109B1098F5F9F4FAF4FFF
:10167000BF4328F30BC0918333822282EA0CFB1C08
:101680000C1D1D1DE482F5820683178383E0808391
:10169000248135814681578157FF1AC0C901AA2785
:1016A00097FDA095BA2F81709070A070B07056957C
:1016B000479537952795822B932BA42BB52B8483A5
:1016C0009583A683B78382819381019693838283D6
:1016D000DF0101C0D201CD01CDB7DEB7E2E10C944C
:1016E000E310A0E2B0E0E7E7FBE00C94D3106983DD
:1016F0007A838B839C832D833E834F835887E9E0D5
:10170000EE2EF12CEC0EFD1ECE010196B7010E94CB
:10171000F60F8E010F5E1F4FCE010596B8010E9495
:10172000F60F8A8991E089278A8BC701B801AE013B
:10173000475E5F4F0E94250A0E94210FA096E6E0B7
:101740000C94EF10A0E2B0E0E8EAFBE00C94D310B8
:1017500069837A838B839C832D833E834F83588751
:10176000F9E0EF2EF12CEC0EFD1ECE010196B70133
:101770000E94F60F8E010F5E1F4FCE010596B80135
:101780000E94F60FC701B801AE01475E5F4F0E948D
:10179000250A0E94210FA096E6E00C94EF10A0E22B
:1017A000B0E0E5EDFBE00C94C71069837A838B838E
:1017B0009C832D833E834F835887CE010196BE01C3
:1017C000675F7F4F0E94F60FCE010596BE016F5EE8
:1017D0007F4F0E94F60F9985923088F08989823078
:1017E000C8F0943019F4823051F404C0843029F4E4
:1017F000923081F480E092E0C6C0923049F420E05B
:101800009A858A89981321E02A87CE010996BBC060
:10181000823049F420E09A858A89981321E02A8B46
:10182000CE014196B0C02D843E844F8458886D8887
:101830007E888F88988CEE24FF248701AA24BB24FD
:10184000650140E050E060E070E0E0E0F0E0C10100
:1018500081709070892BE9F0E60CF71C081D191DAA
:101860009A01AB012A0D3B1D4C1D5D1D80E090E0EF
:10187000A0E0B0E0E614F7040805190520F481E0C3
:1018800090E0A0E0B0E0BA01A901480F591F6A1F1B
:101890007B1FAA0CBB1CCC1CDD1C97FE08C081E082
:1018A00090E0A0E0B0E0A82AB92ACA2ADB2A319643
:1018B000E032F10549F0660C771C881C991C56949F
:1018C000479437942794C3CFFA85EA892B893C89BA
:1018D0008B859C85280F391F2E5F3F4F17C0CA018B
:1018E00081709070892B61F016950795F794E794B5
:1018F00080E090E0A0E0B0E8E82AF92A0A2B1B2B50
:1019000076956795579547952F5F3F4F77FDE7CFC2
:101910000CC0440F551F661F771F17FD4160EE0C6A
:10192000FF1C001F111F21503040403090E059072C
:1019300090E0690790E4790760F32B8F3C8FDB011F
:10194000CA018F779070A070B07080349105A105A6
:10195000B10561F447FD0AC0E114F1040105110568
:1019600029F0405C5F4F6F4F7F4F40781A8EFE1713
:1019700011F081E08A8F4D8F5E8F6F8F78A383E0A7
:10198000898FCE0149960E94210FA096E2E10C9426
:10199000E310A8E1B0E0EFECFCE00C94CF10698319
:1019A0007A838B839C832D833E834F835887B9E052
:1019B000EB2EF12CEC0EFD1ECE010196B7010E941C
:1019C000F60F8E010F5E1F4FCE010596B8010E94E3
:1019D000F60F2985223008F47EC03989323010F4A0
:1019E000B8017CC08A859A8989278A87243011F0BA
:1019F000223031F4231709F06EC060E072E06EC04F
:101A0000343039F41D861E861F86188A1C861B8674
:101A100004C0323021F484E08987B7015FC02B8590
:101A20003C858B899C89281B390B3C872B87ED844F
:101A3000FE840F851889AD88BE88CF88D88CEA14BB
:101A4000FB040C051D0540F4EE0CFF1C001F111FCC
:101A5000215030403C872B8720E030E040E050E0D0
:101A600080E090E0A0E0B0E460E070E0EA14FB0405
:101A70000C051D0540F0282B392B4A2B5B2BEA184F
:101A8000FB080C091D09B695A79597958795EE0C4F
:101A9000FF1C001F111F6F5F7F4F6F31710531F702
:101AA000DA01C9018F779070A070B0708034910511
:101AB000A105B10561F427FD0AC0E114F104010597
:101AC000110529F0205C3F4F4F4F5F4F20782D8745
:101AD0003E874F87588BBE01675F7F4FCB010E94C7
:101AE000210F6896EAE00C94EB10A8E1B0E0EBE778
:101AF000FDE00C94D31069837A838B839C832D83C0
:101B00003E834F83588789E0E82EF12CEC0EFD1EB2
:101B1000CE010196B7010E94F60F8E010F5E1F4F96
:101B2000CE010596B8010E94F60F8985823040F0FB
:101B30008989823028F0C701B8010E946E1001C067
:101B40008FEF6896E6E00C94EF10A8E1B0E0EBEAC6
:101B5000FDE00C94D31069837A838B839C832D835F
:101B60003E834F83588789E0E82EF12CEC0EFD1E52
:101B7000CE010196B7010E94F60F8E010F5E1F4F36
:101B8000CE010596B8010E94F60F8985823040F09B
:101B90008989823028F0C701B8010E946E1001C007
:101BA0008FEF6896E6E00C94EF10A8E1B0E0EBED63
:101BB000FDE00C94D31069837A838B839C832D83FF
:101BC0003E834F83588789E0E82EF12CEC0EFD1EF2
:101BD000CE010196B7010E94F60F8E010F5E1F4FD6
:101BE000CE010596B8010E94F60F8985823040F03B
:101BF0008989823028F0C701B8010E946E1001C0A7
:101C000081E06896E6E00C94EF10ACE0B0E0EBE029
:101C1000FEE00C94D71069837A838B839C83CE017A
:101C20000196BE016B5F7F4F0E94F60F8D8182305F
:101C300061F1823050F1843021F48E81882351F19A
:101C40002EC02F81388537FD20C06E812F313105A0
:101C50001CF06623F9F023C08EE190E0821B930B09
:101C600029853A854B855C8504C0569547953795FF
:101C700027958A95D2F76623B1F050954095309517
:101C800021953F4F4F4F5F4F0EC020E030E040E0C6
:101C900050E009C02FEF3FEF4FEF5FE704C020E0B7
:101CA00030E040E050E8B901CA012C96E2E00C9423
:101CB000F310A8E0B0E0EFE5FEE00C94CF107B015C
:101CC0008C01611571058105910519F482E0898304
:101CD00060C083E089838EE1C82ED12CDC82CB8268
:101CE000ED82FE820F831887C801B7010E94D20ED1
:101CF000FC013197F7FF3BC0222733272E1B3F0BF8
:101D000057016801022E04C0D694C794B794A794D3
:101D10000A94D2F740E050E060E070E081E090E0AB
:101D2000A0E0B0E004C0880F991FAA1FBB1F2A952E
:101D3000D2F70197A109B1098E219F21A023B123D8
:101D40000097A105B10521F041E050E060E070E0AE
:101D50004A295B296C297D294D835E836F837887AF
:101D60008EE190E08E1B9F0B9C838B8312C030977B
:101D700081F00E2E04C0EE0CFF1C001F111F0A94F0
:101D8000D2F7ED82FE820F831887CE1ADF0ADC823B
:101D9000CB821A82CE0101960E94210F2896EAE09A
:101DA0000C94EB10EF92FF920F931F937B018C0129
:101DB00080E0E81680E0F80681E0080780E0180778
:101DC00088F48FEFE816F1040105110531F028F0D1
:101DD00088E090E0A0E0B0E017C080E090E0A0E0F4
:101DE000B0E012C080E0E81680E0F80680E0080766
:101DF00081E0180728F088E190E0A0E0B0E004C09E
:101E000080E190E0A0E0B0E020E230E040E050E08F
:101E1000281B390B4A0B5B0B04C016950795F794EA
:101E2000E7948A95D2F7F701E85FFD4F8081281B80
:101E3000310941095109C9011F910F91FF90EF909C
:101E40000895DF92EF92FF920F931F93FC01E480BD
:101E5000F58006811781D1808081823048F480E04E
:101E600090E0A0E1B0E0E82AF92A0A2B1B2BA5C0DC
:101E7000843009F49FC0823021F4EE24FF248701CE
:101E800005C0E114F1040105110519F4E0E0F0E0EA
:101E900096C0628173819FEF623879070CF05BC056
:101EA00022E83FEF261B370B2A3131052CF020E0CA
:101EB00030E040E050E02AC0B801A701022E04C083
:101EC00076956795579547950A94D2F781E090E00B
:101ED000A0E0B0E004C0880F991FAA1FBB1F2A957D
:101EE000D2F70197A109B1098E219F21A023B12327
:101EF0000097A105B10521F081E090E0A0E0B0E0FD
:101F00009A01AB01282B392B4A2B5B2BDA01C90133
:101F10008F779070A070B07080349105A105B105E5
:101F200039F427FF09C0205C3F4F4F4F5F4F04C07B
:101F3000215C3F4F4F4F5F4FE0E0F0E02030A0E0EA
:101F40003A07A0E04A07A0E45A0710F0E1E0F0E009
:101F500079018A0127C06038710564F5FB01E158F9
:101F6000FF4FD801C7018F779070A070B070803498
:101F70009105A105B10539F4E7FE0DC080E490E0BC
:101F8000A0E0B0E004C08FE390E0A0E0B0E0E80E95
:101F9000F91E0A1F1B1F17FF05C016950795F7941A
:101FA000E794319687E016950795F794E7948A951C
:101FB000D1F705C0EE24FF248701EFEFF0E06E2F8C
:101FC000679566276795902F9F77D794DD24D794E0
:101FD0008E2F8695492F462B582F5D29B701CA01B0
:101FE0001F910F91FF90EF90DF900895FC01DB01AE
:101FF000408151812281622F6F7770E0221F22275A
:10200000221F9381892F880F822B282F30E0991F60
:102010009927991F11969C93119721153105A9F5C0
:10202000411551056105710511F482E037C082E860
:102030009FEF13969C938E9312979A01AB0167E0E2
:10204000220F331F441F551F6A95D1F783E08C93ED
:102050000DC0220F331F441F551F12968D919C9166
:102060001397019713969C938E931297203080E0DC
:10207000380780E0480780E4580758F314962D93FA
:102080003D934D935C93179708952F3F310579F455
:10209000411551056105710519F484E08C9308958B
:1020A00064FF03C081E08C9312C01C9210C02F57B4
:1020B000304013963C932E93129783E08C9387E0E5
:1020C000440F551F661F771F8A95D1F770641496C9
:1020D0004D935D936D937C93179708951F93DC0147
:1020E000FB019C91923008F447C08081823008F453
:1020F00043C0943051F411961C91843099F581813C
:10210000682F70E0611B71093FC0843021F092306C
:1021100031F48230B9F18181882389F12DC0119683
:102120001C9111978230F1F081811817D9F4129621
:102130002D913C911397828193818217930794F09C
:1021400028173907BCF014968D919D910D90BC9184
:10215000A02D2481358146815781281739074A07E8
:102160005B0718F4112341F00AC082179307A407F4
:10217000B50740F4112319F061E070E005C06FEF7E
:102180007FEF02C060E070E0CB011F9108952F92B5
:102190003F924F925F926F927F928F929F92AF92F7
:1021A000BF92CF92DF92EF92FF920F931F93CF9344
:1021B000DF93CDB7DEB7CA1BDB0B0FB6F894DEBFDB
:1021C0000FBECDBF19942A88398848885F846E84F1
:1021D0007D848C849B84AA84B984C884DF80EE804B
:1021E000FD800C811B81AA81B981CE0FD11D0FB654
:1021F000F894DEBF0FBECDBFED010895F894FFCF78
:1022000000000000000000000001020203030303BD
:102210000404040404040404050505050505050576
:102220000505050505050505060606060606060656
:10223000060606060606060606060606060606063E
:102240000606060606060606070707070707070726
:10225000070707070707070707070707070707070E
:1022600007070707070707070707070707070707FE
:1022700007070707070707070707070707070707EE
:1022800007070707070707070808080808080808D6
:1022900008080808080808080808080808080808BE
:1022A00008080808080808080808080808080808AE
:1022B000080808080808080808080808080808089E
:1022C000080808080808080808080808080808088E
:1022D000080808080808080808080808080808087E
:1022E000080808080808080808080808080808086E
:1022F000080808080808080808080808080808085E
:08230000080808080808080895
:00000001FF
